:1000000045C0000060C000005EC000005CC0000091
:100010005AC0000058C0000056C0000054C0000084
:1000200052C0000050C000004EC000004CC0000094
:100030004AC0000048C0000046C0000044C00000A4
:1000400042C0000040C000003EC000003CC00000B4
:100050003AC0000038C0000036C0000034C00000C4
:1000600032C0000030C000002EC000002CC00000D4
:100070002AC0000028C0000026C0000024C00000E4
:1000800022C0000020C000001EC0000011241FBEBE
:10009000CFEFD0E4DEBFCDBF11E0A0E0B1E0E6E2FB
:1000A000F9E000E00BBF02C007900D92A430B10749
:1000B000D9F721E0A4E0B1E001C01D92A830B20759
:1000C000E1F7FAD22EC49CCF3FEF35B93BB900001F
:1000D000000020E0000025B92BB908952FEF25B9C5
:1000E0002BB920E025B92BB9089520E025B92BB90B
:1000F00034E12AE02A95F1F73A95D9F70895FC0101
:100100000FB6F89460910401709105018091060189
:10011000909107010FBE309721F060837183828335
:1001200093830895FC01808191818130910559F478
:10013000228133812130310531F424813581213010
:10014000310509F457C0268137812130310559F432
:10015000408551854130510531F442855385413008
:10016000510509F447C0448555854130510551F486
:10017000668577856130710529F460897189613000
:100180007105C1F18130910531F42130310519F447
:100190004130510579F1228133812130310551F40B
:1001A000208531852130310529F426853785213098
:1001B000310501F1248135812130310519F5628540
:1001C00073856130710509F5608971896130710548
:1001D000E1F410C0808591850197D1F480899189DF
:1001E000019761F407C080859185019789F44130BA
:1001F000510571F482E090E015C108952130310578
:1002000039F4F5CF019721F4E5CF019761F7E2CFFB
:100210000895FC01808191818330910559F42281F8
:1002200033812330310531F4248135812330310588
:1002300009F457C0268137812330310559F44085B0
:1002400051854330510531F4428553854330510582
:1002500009F447C0448555854330510551F46685FE
:1002600077856330710529F4608971896330710580
:10027000C1F18330910531F42330310519F4433055
:10028000510579F1228133812330310551F42085E4
:1002900031852330310529F4268537852330310512
:1002A00001F1248135812330310519F5628573858B
:1002B0006330710509F56089718963307105E1F476
:1002C00010C0808591850397D1F480899189039727
:1002D00061F407C080859185039789F44330510507
:1002E00071F482E090E09EC008952330310539F426
:1002F000F5CF039721F4E5CF039761F7E2CF089597
:10030000CF93DF93EC0188819981ADD08A819B8165
:10031000CBD08C819D81E9D08E819F8107D188854A
:10032000998525D18A859B8543D18C859D8561D111
:100330008E859F857FD1888999899DD12FE788E314
:1003400091E0215080409040E1F700C00000DF9133
:10035000CF910895B9DEB8DEB7DEB6DEB5DEB4DE25
:10036000B3DEB2DEBBDEBADEB9DEB8DEB7DEB6DEE5
:10037000B5DEB4DEB3DEB2DEB1DEB0DEAFDEAEDE01
:10038000ADDEACDEB2CE0895A9DEA8DEA7DEA6DE25
:10039000A5DEA4DEA3DEA2DEA1DEA0DE9FDE9EDE61
:1003A0009DDE9CDE9BDE9ADE8FDE8EDE8DDE8CDEB9
:1003B0008BDE8ADE89DE88DE98CE08958FDE8EDEC3
:1003C0008DDE8CDE8BDE8ADE89DE88DE7DDE7CDE05
:1003D0007BDE7ADE79DE78DE77DE76DE7FDE7EDE5D
:1003E0007DDE7CDE7BDE7ADE79DE78DE7ECE089511
:1003F00075DE74DE73DE72DE71DE70DE6FDE6EDE81
:100400006DDE6CDE6BDE6ADE69DE68DE67DE66DEB0
:1004100065DE64DE63DE62DE61DE60DE5FDE5EDEE0
:1004200064CE089514B820E42AB98130910561F0B2
:100430001CF4892B39F00DC08230910539F00397F7
:1004400039F007C0D5DF05C0B9DF03C083DF01C0C5
:100450009BDF2FEF84E39CE0215080409040E1F748
:1004600000C00000089514B820E22AB98130910537
:1004700061F01CF4892B39F00DC08230910539F000
:10048000039739F007C0B4DF05C098DF03C062DF0F
:1004900001C07ADF2FEF84E39CE021508040904040
:1004A000E1F700C00000089514B820E12AB98130B6
:1004B000910561F01CF4892B39F00DC08230910553
:1004C00039F0039739F007C093DF05C077DF03C029
:1004D00041DF01C059DF2FEF84E39CE021508040D1
:1004E0009040E1F700C00000089514B828E02AB950
:1004F0008130910561F01CF4892B39F00DC08230F8
:10050000910539F0039739F007C072DF05C056DF57
:1005100003C020DF01C038DF2FEF84E39CE02150CF
:1005200080409040E1F700C00000089514B824E036
:100530002AB98130910561F01CF4892B39F00DC086
:100540008230910539F0039739F007C051DF05C0BB
:1005500035DF03C0FFDE01C017DF2FEF84E39CE02F
:10056000215080409040E1F700C00000089514B889
:1005700022E02AB98130910561F01CF4892B39F011
:100580000DC08230910539F0039739F007C030DF94
:1005900005C014DF03C0DEDE01C0F6DE2FEF84E30A
:1005A0009CE0215080409040E1F700C00000089599
:1005B00014B821E02AB98130910561F01CF4892B2F
:1005C00039F00DC08230910539F0039739F007C03A
:1005D0000FDF05C0F3DE03C0BDDE01C0D5DE2FEFA7
:1005E00084E39CE0215080409040E1F700C000008F
:1005F000089520E824B91AB88130910561F01CF4FF
:10060000892B39F00DC08230910539F0039739F00C
:1006100007C0EEDE05C0D2DE03C09CDE01C0B4DE42
:100620002FEF84E39CE0215080409040E1F700C030
:100630000000089520E424B91AB88130910561F0D2
:100640001CF4892B39F00DC08230910539F00397E5
:1006500039F007C0CDDE05C0B1DE03C07BDE01C0CE
:1006600093DE2FEF84E39CE0215080409040E1F73F
:1006700000C00000089520E224B91AB88130910525
:1006800061F01CF4892B39F00DC08230910539F0EE
:10069000039739F007C0ACDE05C090DE03C05ADE18
:1006A00001C072DE2FEF84E39CE021508040904037
:1006B000E1F700C000000895CF93DF93CDB7DEB718
:1006C00062970FB6F894DEBF0FBECDBF85B185B976
:1006D0008BB18BB9CE01019622E1FC0111922A95D2
:1006E000E9F70EDE80E090E00ADDCB01B2D0EE2427
:1006F000E394F12C09E010E0AA24A394B12C0F2E6E
:10070000F3E0CF2EF02DD12C02C0EC2CFD2CCE012D
:100710000196F6DDC70186DECE01019603DDCE012E
:10072000019677DD93D0B80123D09C01880F991FE3
:10073000E1E0F0E0EC0FFD1FE80FF91F80819181EF
:10074000181619067CF3220F331FE1E0F0E0EC0FDE
:10075000FD1FE20FF31FF182E082F1E0EF16F104DA
:10076000A1F283E0E816F10491F6EA2CFB2CCFCF3E
:1007700097FB072E16F4009406D077FD08D00BD017
:1007800007FC05D03EF4909581959F4F0895709594
:1007900061957F4F0895AA1BBB1B51E107C0AA1F9B
:1007A000BB1FA617B70710F0A61BB70B881F991F12
:1007B0005A95A9F780959095BC01CD0108958F9227
:1007C0009F92AF92BF92CF92DF92EF92FF92CF9320
:1007D000DF93EC01688179818A819B8161157105C4
:1007E0008105910521F464E279ED8BE597E02DE137
:1007F00033EF41E050E038D049015A019B01AC0190
:10080000A7EAB1E44DD06B017C01ACEEB4EFA501D9
:10081000940152D0DC01CB018C0D9D1DAE1DBF1D7E
:10082000B7FF03C00197A109B04888839983AA83C1
:10083000BB839F77DF91CF91FF90EF90DF90CF90B8
:10084000BF90AF909F908F900895B9CF80E091E0D6
:10085000B6CFA0E0B0E08093000190930101A09397
:100860000201B09303010895052E97FB16F400943E
:100870000FD057FD05D024D007FC02D046F408C0A5
:1008800050954095309521953F4F4F4F5F4F0895BC
:1008900090958095709561957F4F8F4F9F4F0895EC
:1008A00031D0A59F900DB49F900DA49F800D911DF8
:1008B00011240895B7FFF4CFF3DF821B930B089543
:1008C000A1E21A2EAA1BBB1BFD010DC0AA1FBB1F54
:1008D000EE1FFF1FA217B307E407F50720F0A21BC6
:1008E000B30BE40BF50B661F771F881F991F1A9433
:1008F00069F760957095809590959B01AC01BD015D
:10090000CF010895A29FB001B39FC001A39F700DB6
:10091000811D1124911DB29F700D811D1124911D07
:060920000895F894FFCFDA
:0409260001000000CC
:00000001FF
